:0200000490006A
:080000006F0000200000000069
:1000080000000000000000000000000000000000E8
:1000180000000000000000000000000000000000D8
:1000280000000000000000000000000000000000C8
:1000380000000000000000000000000000000000B8
:1000480000000000000000000000000000000000A8
:100058000000000000000000000000000000000098
:100068000000000000000000000000000000000088
:100078000000000000000000000000000000000078
:100088000000000000000000000000000000000068
:100098000000000000000000000000000000000058
:1000A8000000000000000000000000000000000048
:1000B8000000000000000000000000000000000038
:1000C8000000000000000000000000000000000028
:1000D8000000000000000000000000000000000018
:1000E8000000000000000000000000000000000008
:0C00F800000000000000000000000000FC
:1001040000000000000000000000000000000000EB
:1001140000000000000000000000000000000000DB
:1001240000000000000000000000000000000000CB
:1001340000000000000000000000000000000000BB
:1001440000000000000000000000000000000000AB
:10015400000000000000000000000000000000009B
:10016400000000000000000000000000000000008B
:10017400000000000000000000000000000000007B
:10018400000000000000000000000000000000006B
:10019400000000000000000000000000000000005B
:1001A400000000000000000000000000000000004B
:1001B400000000000000000000000000000000003B
:1001C400000000000000000000000000000000002B
:1001D400000000000000000000000000000000001B
:1001E400000000000000000000000000000000000B
:1001F400000000000000000000000000970100F86B
:100204009381416F170100F4130181DF17E50000AA
:1002140013050536970500F8938585DE170600F863
:10022400130686EE63FAC5008322050023A0550059
:1002340011059105E3EAC5FE170500F0130545DC39
:10024400972504F0938545066377B50023200500C0
:100254001105E36DB5FEEF50406E7155B7E2ADDEAA
:0E0264009382D2EA23205500F5BF000000006F
:10030000130181F806C216C41AC61EC822CA26CC1A
:100310002ACE2ED032D236D43AD63ED842DA46DC75
:100320004ADECEC0D2C2D6C4DAC6DEC8E2CAE6CC45
:10033000EACEEED0F2D2F6D4FAD6FED8F3220030CE
:1003400096DA970200F083A262D223A022007325DE
:100350002034F32510341356F50145C22EC08542D2
:10036000FE0213837200631D6504970200F083A2EE
:1003700062CB170300F8032323D883230300032E43
:10038000430083AE020003A04200338F7E00B33FE0
:100390007F007E9E2320E3012322C301B702004990
:1003A00003A302001363830023A0620017E100008F
:1003B00003214115EF10B0313DC5EF105075A5A0D8
:1003C0001103630665001503637A650091A817E1C0
:1003D000000003212113EF20F062B1A017E100001B
:1003E00003214112732310BF71111AC0EF209061D5
:1003F00002431101731003BF3DA091052EC0AD4211
:100400006319550017E100000321C10FEF10307090
:1004100019A8F322203473231034F3230030D5BFFE
:10042000F3222034F5BF170300F0032323C4032174
:100430000300824273901234D6527390023092407D
:10044000A2423243C2435244E2447245825512569C
:10045000A2563257C2575258E25872598649164A24
:10046000A64A364BC64B564CE64C764D865D165E1C
:10047000A65E365FC65F130181077300203013004C
:100480000000130000001300000013000000130020
:100490000000130000001300000013000000130010
:1004A0000000130000001300000013000000130000
:1004B00000001300000013000000130000001300F0
:1004C00000001300000013000000130000001300E0
:1004D00000001300000013000000130000001300D0
:1004E00000001300000013000000130000001300C0
:1004F00000001300000013000000130000000100C2
:1005000097020000938202E073905230170100F0CE
:100510000321C1B5024182403243C2435244E24406
:10052000724582551256A2563257C2575258E25857
:1005300072598649164AA64A364BC64B564CE64C6B
:10054000764D865D165EA65E365FC65FD652A10208
:1005500073900230A24213018107828013000000D1
:10056000130000001300000013000000130000003F
:10057000130000001300000013000000130000002F
:10058000130000001300000013000000130000001F
:10059000130000001300000013000000130000000F
:1005A00013000000130000001300000013000000FF
:1005B00013000000130000001300000013000000EF
:1005C00013000000130000001300000013000000DF
:1005D00013000000130000001300000013000000CF
:1005E00013000000130000001300000013000000BF
:1005F00013000000130000001300000013000000AF
:10060000F322003093F272FF130380181203B3E257
:100610006200711523205500130585FA10C12115BC
:100620002320050081426387020071152320050005
:10063000FD12D5BF71150CC18280000000000000C2
:1006400000000000000000000000000000000000AA
:10065000000000000000000000000000000000009A
:10066000000000000000000000000000000000008A
:10067000000000000000000000000000000000007A
:10068000000000000000000000000000000000006A
:10069000000000000000000000000000000000005A
:1006A000000000000000000000000000000000004A
:1006B000000000000000000000000000000000003A
:1006C000000000000000000000000000000000002A
:1006D000000000000000000000000000000000001A
:1006E000000000000000000000000000000000000A
:1006F00000000000000000000000000000000000FA
:1007000000000000000000000000000000000000E9
:1007100000000000000000000000000000000000D9
:100720000000000000000000000000003D432A8798
:100730006373C3029377F700BDEFADE5937606FFD1
:100740003D8ABA960CC34CC30CC74CC74107E36B38
:10075000D7FE11E28280B306C3408A0697020000EA
:1007600096966780A6002307B700A306B700230666
:10077000B700A305B7002305B700A304B7002304FF
:10078000B700A303B7002303B700A302B7002302F7
:10079000B700A301B7002301B700A300B7002300EF
:1007A000B700828093F5F50F93968500D58D9396CB
:1007B0000501D58D61B793962700970200009696A4
:1007C0008682E78086FA9680C1171D8F3E96E37475
:1007D000C3F8A5B7411122C406C62A84EF10806D64
:1007E000B707008083A54701F9C5B707008083A834
:1007F0000700B377140185E39307F4FF3957636C5F
:10080000F7009377F400130504018DC3937705FF78
:10081000C107636CF500EF109008EF50802401448D
:10082000B24022852244410182803E85370E0080FD
:1008300003230E01E361A3FE3706008083278601B0
:10084000130886011306860129A0984311C73E8626
:10085000BA87D443E3EBA6FEE38FB7FA03AF0700F2
:100860003387A640930E00022320E601138407017C
:1008700063E8EE0A370700800326C7003303D3403E
:1008800023286E006374C3002326670037060080A8
:1008900003278600B3E8D80023A2170123A007008E
:1008A000930717002324F600EF10607FB2402285E3
:1008B000224441018280B70600809385061013F719
:1008C000F50031EB138706109386061037050400F8
:1008D00041153706008013068601AA95C199232287
:1008E000060014C23387E54023A2050023A00500BB
:1008F000370800803705008037060080B708008081
:1009000023AAB7002326E8002328E500D8C28CC21A
:1009100023201601F9BD1387F500419BBA867DB7E8
:10092000B386A700D8C2C8C342873A861843E36E8D
:10093000D7FE0328460083AE4600330F06016386C8
:10094000E6033388D6016308070198C26383C600B3
:1009500014C2AA8605B7E30AB7FE4C43084333879F
:10096000D501D8C288C2C843D5B7769823220601DC
:10097000B30606016304D700D443EDBDE30EB7FE12
:1009800054430C433387060158C2D4430CC2DDB52F
:1009900009CDB707008083A70700032745FFB3767B
:1009A000F70081C6832605FF91C28280011193C79B
:1009B000F7FFF98F22CC06CE232AF5FE130405FF9C
:1009C0002AC6EF10204F3245370600800327060164
:1009D000832645FFB7070080938787013697232832
:1009E000E6003E879C43E3EE87FE5043B305C70015
:1009F0006307B4023306D4006387C7042328F5FED7
:100A00006303870000C337070080832747006244E1
:100A1000F24085072322F70005616F104068B29607
:100A200054C33306D700E390C7FE37060080032681
:100A300046013A84E309F6FCD0438C43B307D60061
:100A40005CC00CC075BF3706008003264601E395E5
:100A5000C7FE2328F5FE6DB7930785007D57232039
:100A6000050018C55CC15CC51CC98280232805002F
:100A7000828090417D57930785006300E602BE8621
:100A8000DC439843E37DE6FEDCC18CC71C4194C582
:100A9000CCC288C985071CC182801449DC42EDB7ED
:100AA0001C4954411845D04398C654C36309A60055
:100AB0009843232805007D1798C388438280D8C3B4
:100AC0009843232805007D1798C388438280B70781
:100AD0000049C107B706008023A0F6023707004986
:100AE0002322070023240700956623260700938608
:100AF00006E294C337070049232A0700B70600809F
:100B0000BA87154798C383A78602296703A6C6023A
:100B1000130707C43E97B337F700B29723A4E60242
:100B200023A6F6028280411106C655378567938752
:100B3000078873A04730E932B24001454101828005
:100B4000411106C622C441C1B337B50226C24AC00C
:100B5000AA842E89BDE73305B502930770FB63E2D3
:100B6000A70613058504BD312A8421CDAA87631207
:100B700009061CC044DC23202405EF10306D3440EE
:100B80005C5C18407D56B387F602232C04022302D6
:100B9000C40458C0A302C40413050401B386D7409B
:100BA000BA9736971CC458C4453D130544026D35A9
:100BB000EF10F06BB2402285224492440249410179
:100BC0008280924402490144B2402285224441017C
:100BD00082809307850471BF397122DC56D22A8442
:100BE0005AD006DE26DA2E8BB68A32C6EF10106691
:100BF000185C5C5C6361F71209478147638CEA20EB
:100C00004AD84ED652D4930944027D5A130904019E
:100C1000324763060722638B071EEF105065EF1003
:100C20006029EF10B06283474404E207E1876394D0
:100C300047012302040483475404E207E1876394D5
:100C40004701A3020404EF1090626C002808EF1023
:100C5000F02E63130520EF10705F185C5C5C630E70
:100C6000F70EEF10D060EF10705E8347540493943A
:100C70008701E184634B90000DA89387F4FF939460
:100C8000870113F7F70FE1840DC35C504E8591CFB8
:100C9000EF10301C7DD1EF1070359387F4FF9394E3
:100CA000870113F7F70FE1846DF3A3024405EF10FA
:100CB000105CEF10B0598347440493948701E1849A
:100CC000634B90000DA89387F4FF9394870113F76B
:100CD000F70FE1840DC31C484A8591CFEF107017C0
:100CE0007DD1EF10B0309387F4FF9394870113F711
:100CF000F70FE1846DF323024405EF105057EF1016
:100D0000003AEF10B054185C545C8547E372D7F09A
:100D10004259B259225A3040045C6301061063986C
:100D20000A224840DA858504EF70304C5C4034403C
:100D30001844B6975CC063E7E70E184004DC5C50CB
:100D400058C06395070EEF109052F2506254D2547F
:100D5000925A025B054521618280EF105051B245E5
:100D60004A85EF10E065EF10704E8347540493946A
:100D70008701E184634B90000DA89387F4FF93945F
:100D8000870113F7F70FE1840DC35C504E8591CFB7
:100D9000EF10300C7DD1EF1070259387F4FF939402
:100DA000870113F7F70FE1846DF3A3024405EF10F9
:100DB000104CEF10B0498347440493948701E184B9
:100DC000634B90000DA89387F4FF9394870113F76A
:100DD000F70FE1840DC31C484A8591CFEF107007CF
:100DE0007DD1EF10B0209387F4FF9394870113F720
:100DF000F70FE1846DF323024405EF105047EF1025
:100E0000002AE31005F073000000E5BD2808EF108C
:100E1000901121B53040045C6315060E1C4085041A
:100E20006389071004DC5C50E38F07F0130544026C
:100E3000EF103002E30905F07300000029B7EF104E
:100E40001043F25062544259B259225AD254925A23
:100E5000025B014521618280EF10503F83475404BB
:100E60001309440293948701E184634B90000DA819
:100E70009387F4FF9394870113F7F70FE1840DC371
:100E80005C504A8591CFEF10C07C7DD1EF101016D9
:100E90009387F4FF9394870113F7F70FE1846DF3C1
:100EA000FD57A302F404EF10903CEF10303A834753
:100EB00044041309040193948701E184634B900077
:100EC0000DA89387F4FF9394870113F7F70FE1843C
:100ED0000DC31C484A8591CFEF10A0777DD1EF104C
:100EE000F0109387F4FF9394870113F7F70FE184D1
:100EF0006DF3FD572302F404EF107037EF10201A42
:100F000089B74844DA85EF70502E38405C4414406D
:100F10003306E040998F5CC463F5D7001C44B29758
:100F20005CC4E39104F085471CDC5C50E38D07E072
:100F3000F5BD0844EF10101B04DC585023240400B6
:100F4000E31607EEE30105E073000000EDBB484443
:100F5000DA85EF70902938405C441040B306E040D9
:100F6000998F5CC463EBC7008947E38CFAFA850468
:100F700004DC5C50E38907DC55BD1C44B6975CC4B7
:100F8000E5B741111305800422C406C6EFF09F8423
:100F90002A8431CD08C085475CDD23200504EF108D
:100FA000F02A34405C5C18407D56B387F602232C4F
:100FB00004022302C40458C0A302C404130504019C
:100FC000B386D740BA9736971CC458C471341305FA
:100FD00044025934EF10B029228523240400232031
:100FE000040023260400814601468145F536B240BF
:100FF0002285224441018280185D5C5D6372F702A4
:1010000083475504050718DDE207E1877D57638BA9
:10101000E7008507E207E187A302F5040545828022
:10102000014582805C51FDDB01111305450206CEAE
:101030002EC6EF10006209C5B24599C185479CC113
:10104000F240054505618280397122DC2A8426DA66
:1010500056D206DEAE8A32C6EF10501F045C63948F
:10106000042AB2474AD84ED652D45AD06385071CB8
:101070002808EF10406B93094402130904017D5ABC
:10108000EF10F01EEF001063EF10501C8347440474
:10109000E207E18763944701230204048347540471
:1010A000E207E18763944701A3020404EF10301CB8
:1010B0006C002808EF10806861E5EF1030191C5CA7
:1010C00063980718EF10B01AB245130B44025A8503
:1010D000EF10002FEF10901783475404939487016B
:1010E000E184634B90000DA89387F4FF93948701EC
:1010F00013F7F70FE1840DC35C505A8591CFEF10C1
:1011000040557DD1EF10806E9387F4FF9394870153
:1011100013F7F70FE1846DF3FD57A302F404EF100A
:101120001015EF10B01283474404130B040193947D
:101130008701E184634B90000DA89387F4FF93949B
:10114000870113F7F70FE1840DC31C485A8591CF2F
:10115000EF1020507DD1EF1060699387F4FF9394D6
:10116000870113F7F70FE1846DF3FD572302F404B1
:10117000EF10F00FEF00B07245E9730000006DA0B2
:10118000EF10D00C8347540493948701E184634BA0
:1011900090000DA89387F4FF9394870113F7F70F3E
:1011A000E1840DC35C504E8591CFEF10804A7DD114
:1011B000EF10C0639387F4FF9394870113F7F70F41
:1011C000E1846DF3A3024405EF10700AEF101008DC
:1011D0008347440493948701E184634B90000DA8F6
:1011E0009387F4FF9394870113F7F70FE1840DC3FE
:1011F0001C484A8591CFEF10C0457DD1EF10005FAC
:101200009387F4FF9394870113F7F70FE1846DF34D
:1012100023024405EF10B005EF007068EF101003D3
:101220001C5C91CBEF10B004EF105002045CE1E8BD
:10123000B247E39707E4EF109003F250625442592B
:10124000B259225A025BD254925A014521618280DE
:10125000EF10F001EF10807F83475404130B44021A
:1012600093948701E184634B90000DA89387F4FF6A
:101270009394870113F7F70FE1840DC35C505A85EF
:1012800091CFEF10003D7DD1EF1040569387F4FFD2
:101290009394870113F7F70FE1846DF3FD57A302D1
:1012A000F404EF10C07CEF10607A83474404130B02
:1012B000040193948701E184634B90000DA8938708
:1012C000F4FF9394870113F7F70FE1840DC31C48D3
:1012D0005A8591CFEF10E0377DD1EF1020519387E1
:1012E000F4FF9394870113F7F70FE1846DF3FD5733
:1012F0002302F404EF10A077EF00705A35B742597B
:10130000B259225A025B304011CA4C441C44B29577
:101310004CC463F2F5025685EF70206DFD1404DCB9
:101320001C4889EFEF10A074F2506254D254925AC4
:101330000545216182800C404CC4F1BF13050401B6
:10134000EF10203165D173000000E9BF397122DC54
:1013500006DE2A842EC6EF10606F1C5C639C072E8D
:10136000B24726DA4AD84ED652D456D25AD06385DE
:1013700007122808EF10203B9309440213090401C7
:10138000814A7D5AEF10A06EEF00D032EF10006C52
:1013900083474404E207E18763944701230204047E
:1013A00083475404E207E18763944701A3020404DE
:1013B000EF10E06B6C002808EF1040386311050E49
:1013C000EF10C0681C5C639D0718EF10406A1C405A
:1013D00063830726B245130B44025A85EF00507E03
:1013E000EF10C0668347540493948701E184634BF4
:1013F00090000DA89387F4FF9394870113F7F70FDC
:10140000E1840DC35C505A8591CFEF1080247DD1CB
:10141000EF10C03D9387F4FF9394870113F7F70F04
:10142000E1846DF3FD57A302F404EF104064EF1064
:10143000E0618347440493948701E184635D9002F3
:10144000130B040109A89387F4FF9394870113F702
:10145000F70FE1840DC31C485A8591CFEF10601F30
:101460007DD1EF10A0389387F4FF9394870113F791
:10147000F70FE1846DF3FD572302F404EF10205FB2
:10148000EF00F04163080518EF10405C1C5C639DA1
:10149000071AB247E39807EEEF10605D7DA0EF10EA
:1014A000E05A8347540493948701E184634B90008E
:1014B0000DA89387F4FF9394870113F7F70FE18446
:1014C0000DC35C504E8591CFEF10A0187DD1EF1069
:1014D000E0319387F4FF9394870113F7F70FE184CA
:1014E0006DF3A3024405EF108058EF102056834798
:1014F000440493948701E184634B90000DA8938783
:10150000F4FF9394870113F7F70FE1840DC31C4890
:101510004A8591CFEF10E0137DD1EF10202D9387F6
:10152000F4FF9394870113F7F70FE1846DF323021F
:101530004405EF10C053EF009036EF1020511C5CB3
:10154000F9E7EF10C052639A0A0CF2506254D25479
:101550004259B259225A925A025B01452161828056
:10156000EF10E050EF10804E8347540493948701AE
:10157000E184635D9002130B440209A89387F4FF92
:101580009394870113F7F70FE1840DC35C505A85DC
:1015900091CFEF10000C7DD1EF1040259387F4FF21
:1015A0009394870113F7F70FE1846DF3FD57A302BE
:1015B000F404EF10C04BEF10604983474404939448
:1015C0008701E184635D9002130B040109A89387EE
:1015D000F4FF9394870113F7F70FE1840DC31C48C0
:1015E0005A8591CFEF10E0067DD1EF102020938730
:1015F000F4FF9394870113F7F70FE1846DF3FD5720
:101600002302F404EF10A046EF007029B5BDEF10DF
:1016100000469DBD7300000085BDEF1020434C5077
:1016200089C51C589D459C439D8D0844EF1000368C
:10163000EF10E04319BFEF1060410844EF10C01BEA
:10164000AA8AEF10C04279B3D2544259B259225AF1
:10165000925A025B1840FD171CDC15C31C4881EB35
:10166000EF10E040F250625405452161828013057D
:101670000401EF00107E6DD573000000D5B7EF10A8
:10168000E04108C4E1BFA9CD3727048093070710C4
:10169000D443630CD50E9443A9C6D8476301E51023
:1016A000984735CBD84B630AE50E984B2DCFD84FD2
:1016B000630FE50C984F41C3D853630BE50898536B
:1016C00041CFD8576307E50C985759CFD85B6304CF
:1016D000E50C985B55C3D85F6307E50A9C5FA5C717
:1016E0008280D447630DD50AD44B6308D50A13070B
:1016F0000710D44F630DD508D453630BD504D457CA
:101700006309D508D45B6308D508D45F630DD5069B
:101710000CC348C38280D84B6301E5083727048097
:1017200013078710F9B7D84F6303E50637270480FE
:1017300013070711D1B7D853630CE500372704808E
:10174000130787116DBF3727048013078713C9B7A5
:1017500011470E073E976DBFD857630CE502372738
:1017600004801307071279BFD85B6306E5023727A9
:1017700004801307871251BFD45F372704801307F3
:101780000713E317D5F81D47E9B70147D9B70D4748
:10179000C9B715477DBF19476DBF09475DBF0547ED
:1017A0004DBF411122C426C24AC0AA8406C62E8457
:1017B0003289EF10A02983C744047D57E207E187EF
:1017C0006394E7002382040483C754047D57E2072F
:1017D000E1876394E700A3820404EF1040299C5C36
:1017E000C5CBEF10A02683C75404139487016184EE
:1017F000635D80021389440209A89307F4FF1394E0
:10180000870113F7F70F61840DC3DC504A8591CF30
:10181000EF0030647DD1EF00707D9307F4FF1394E7
:10182000870113F7F70F61846DF3FD57A382F4046A
:10183000EF10E023EF10802183C744041394870145
:101840006184635D80021389040109A89307F4FF92
:101850001394870113F7F70F61840DC39C484A85E1
:1018600091CFEF00105F7DD1EF0050789307F4FF28
:101870001394870113F7F70F61846DF3FD572382EB
:10188000F4042244B2409244024941016F10201EE8
:101890004A86A28513854402EF00104299B70111D0
:1018A00056C2B72A048026CA4AC84EC652C406CEBB
:1018B00022CC938A4A15B7040080B7090080370A02
:1018C00000803709008083A7C405F5DF73700430FA
:1018D00083A7C90481CB03278A0683278A067C4312
:1018E00085077CC383A7CA00C04713054400EFF0F7
:1018F0002F9B83278905FD17232CF90483A7C40593
:10190000FD1723AEF40483A7C90485C383278A0681
:10191000FC4381CF03278A0683268A067C43FD1772
:101920007CC3FC4299E3736004300858EFF04F86A3
:101930002285EFF0EF8583A7C405C9FB69B77971EC
:101940004ECE9319260052CC2A8A4E8526D256CAEC
:101950005AC85EC606D6AE84368BBA8ABE8BEFE016
:101960007FE7630605204AD02A891305800522D423
:10197000EFE05FE62A846307051E232825034E86D1
:101980004A859305500AEFE07FDA032904031388A0
:10199000C9FF4299137909FF638E042083870400ED
:1019A000230AF402D1C783871400A30AF402C9C32F
:1019B00083872400230BF402A5CF83873400A30B75
:1019C000F402BDC783874400230CF402B5C38387A8
:1019D0005400A30CF402A9CF83876400230DF40202
:1019E000A1CB83877400A30DF402B9C3838784005D
:1019F000230EF40295CF83879400A30EF4028DCBBF
:101A00008387A400230FF40285C78387B400A30F44
:101A1000F40299CF8387C4002300F40491CB838719
:101A2000D400A300F40489C78387E4002301F404ED
:101A3000A3010404994763E55713930944004E85B5
:101A4000232654032324540523260404EFF00F8295
:101A500013058401EFF08F819D47B387574100C87C
:101A600040D023220404230804041CCCA30804044B
:101A700023090404A30904045A86D2854A85230A4B
:101A80000404A30A0404EFE0BFB708C063840B009A
:101A900023A08B0073700430370A00808327CA04A8
:101AA00037090080D5E7370700808327870585073A
:101AB000232CF70483278906EDC38327CA045454D3
:101AC000E9C3B72704809384471A93972600B697F3
:101AD0008A07A697D04337050080032805050547E8
:101AE0000C463317D700336707012328E5049443D6
:101AF00010C44CC423A235012324360137060080CC
:101B00000327C6035CC8850694C38326CA049307CB
:101B10001700232EF60291CE83278906FC4391CB32
:101B200003278906832689067C43FD177CC3FC4274
:101B3000C9C78327CA0489CB032789065C54585731
:101B40006374F700730000002254025905450DA08C
:101B500003278906832789067C4385077CC3A1B7B1
:101B6000BE8AE1BD4A85EFE0BFE2225402597D55AD
:101B7000B2509254F249624AD24A424BB24B45614A
:101B8000828083278906DC57E3EDF6F2B7270480CD
:101B9000232489069384471A0DBF2324890603272B
:101BA00087058547630EF700B72704805454938454
:101BB000471A21BF230A0402B5BD7360043095BFE4
:101BC000B72A048093844A1A138BC408938A4A1A4A
:101BD0005685D10AEFE05FE8E31C5BFF372B0480FA
:101BE00013050B19EFE05FE7B72A04801385CA17C6
:101BF000EFE09FE63725048013058516EFE0DFE56B
:101C00003725048013054515EFE01FE537250480CF
:101C100013050514EFE05FE4B7070080130B0B1901
:101C200023A26707938ACA17B7070080545423A0DA
:101C3000570761BD0111216506CEEFE0BFB963060C
:101C4000051626CAAA841305800522CCEFE09FB8AA
:101C50002A84630B051652C44AC84EC621669305F2
:101C6000500A04D92685EFE07FAC37474C4504582D
:101C700013079744130A4400A167F11758D85285F7
:101C8000230C0402A30104042326040223240404D5
:101C900023260404BE94EFE07FDD13058401EFE00A
:101CA000FFDC9D47C198B72500901CCC00C840D0F0
:101CB0002322040423080404A308040423090404BD
:101CC000A30904042685230A0404A30A04049385B3
:101CD000E5890146EFE0DF9208C0B707008023AA3C
:101CE000870273700430B709008083A7C9043709DD
:101CF0000080F9E337070080832787058507232CB9
:101D0000F70483278906EDCB83A7C9045454E9CB94
:101D1000B72704809384471A93972600B6978A07BB
:101D2000A697D043370500800328050505470C46D4
:101D30003317D700336707012328E504944310C401
:101D40004CC423A245012324460137060080032703
:101D5000C6035CC8850694C383A6C904930717000D
:101D6000232EF60291CE83278906FC4391CB0327CD
:101D70008906832689067C43FD177CC3FC42D1CBB0
:101D800083A7C90489CB032789065C545857637419
:101D9000F70073000000EF10E0058547630EF506BD
:101DA0006244D2444249B249224AF240B7E7009025
:101DB00083A7475005618280032789068327890608
:101DC0007C4385077CC33DB72685EFE07FBCF240AE
:101DD0006244B7E70090D24483A7475005618280F0
:101DE00083278906DC57E3E5F6F2B727048023242E
:101DF00089069384471A0DB723248906032787058C
:101E00008547630BF702B727048054549384471A1D
:101E100021B773600430ADB773700430B70700802A
:101E20007D5723ACE70223A6A904B707008023AAA5
:101E30000704EFE05FCFADB756C2B72A04809384A2
:101E40004A1A5AC0938A4A1A138BC4085685D10A73
:101E5000EFE09FC0E39C6AFF372B048013050B194A
:101E6000EFE09FBFB72A04801385CA17EFE0DFBEFB
:101E70003725048013058516EFE01FBE3725048043
:101E800013054515EFE05FBD3725048013050514E4
:101E9000EFE09FBC130B0B19B707008023A2670765
:101EA000938ACA17B707008023A057075454924A51
:101EB000024B9DB53707008083270703850723283A
:101EC000F7028280B707008003A547058280B70725
:101ED000008083A70703411106C663920718B7075E
:101EE000008083A8470522C426C2850823AA1705B7
:101EF000638E080CB70F008083A78F0363E8F81088
:101F00003703008083274306372504801305451ACD
:101F10009C430144B70E0080370E0080054FC9E393
:101F200085AA8C42985723AA0700FD158CC211CFB1
:101F3000CC4F94530328470094C5CCC2630F58106C
:101F4000144323A40702FD1614C3D45783220E059D
:101F50001397260036970A072A9703284700B315D8
:101F6000DF00B3E55500832288002328BE040C431C
:101F700023A4070123A6570023A2C2002324C800DC
:101F8000D8CB938715001CC303A78E06832743066F
:101F900058579C43B3B6E60093B61600558CEDCB6C
:101FA00083274306DC47DC47D843138647009382E8
:101FB000870163E3E80ED44B8C47D84703A846005B
:101FC00098C54CC3E31FC8F4D8C2A1BFB7070080AF
:101FD0003707008003A6470683250706B70600805B
:101FE00023A2B7062320C70603A70604050723A0DC
:101FF000E60403A74706184359E3B70F0080FD57CF
:1020000023ACFF0283A78F03E3FCF8EE372504809F
:102010001305451A0144B70E008083A78E06B70644
:102020000080D85793172700BA978A073E95084132
:1020300083A78604133525009344150095CFB70771
:10204000008083A74704B240B337F00033E5F400C3
:10205000418D224492444101828054C3D5B5370753
:1020600000808327870485072324F704EF3030207E
:10207000B240014541018280EF30701FC9B783A78C
:102080004706B70F0080DC479C4323ACFF02ADB589
:10209000FD5723ACFF0251B723ACEF02BDBF0111C6
:1020A00006CE26CA73700430B704008083A7C40428
:1020B00091CB370E008003278E0683278E067C4344
:1020C00085077CC3B707008003A707037D1723A8F4
:1020D000E70283A7070363960712B707008083A769
:1020E000870563800712B72804809388881683A722
:1020F000080022CC4AC852C437040080D5CF372FFD
:102100000480130F4F1A370E008037030080370406
:102110000080854E83A7C800DC479857D04F945362
:1021200048439385870114C6D0C2630CB51014438D
:1021300023A40702FD1614C3D04B9447D8474C4242
:102140001385470098C654C3638BA50ED457032844
:1021500006001397260036970A077A977D184C4396
:1021600023200601832F030503A885003396DE0094
:102170003366F6012328C304104323A607018CC746
:102180002322A80088C5D8CB930716001CC3832739
:102190008E06DC5763E0F60A2322D40583A70800E5
:1021A000B5FBB707008003A74706184349EFB707F9
:1021B00000807D5723ACE702370A008003298A0498
:1021C000630E09004EC6854919337D1919C12322B2
:1021D0003405E31B09FEB24923240A04832744047F
:1021E00091CF7300000083A7C40462444249224A8D
:1021F000054581EFF240D244056182806244424944
:10220000224A83A7C4040145F5D7B707008003A776
:102210008706784365D303A7870683A687067C4392
:10222000FD177CC3FC42F9F773600430F240D244DE
:102230000561828083A70800E39E07EC9DB758C222
:1022400031B754C3EDB503A74706B7070080584719
:10225000184323ACE7028DB701E5730000008280CC
:102260003707008083270703411122C4850706C66C
:1022700026C24AC02A842328F702B70700803709FC
:10228000008083A447058327890603258906A38A3E
:1022900007041105EFE0DF8005E183268906370793
:1022A00000808547D05683260705B397C70093C79C
:1022B000F7FFF58F2328F70483278906A294C4C368
:1022C00063ED8402B707008003A5470683258906CE
:1022D0009105EFE00FFAB707008003A7870363F4C7
:1022E000E40023AC9702653B19E173000000B240A3
:1022F00022449244024941018280B707008003A52D
:102300000706832589069105EFE0AFF6E9BFB70719
:10231000008083A7070399C7B7070080054723A25A
:10232000E70482804111B707008023A2070422C47A
:102330003704008003278406B7A7A5A506C6185B47
:102340009387575A14436395F6005C43638AD70416
:10235000032584068325840693854503EF30C070EA
:10236000B707008003A50705EF60207DFD47898F33
:10237000139527003E95B72704809387471A0A05CF
:102380003387A700544321053E95DC425CC363803C
:10239000A702DC47B2402324F40622444101828094
:1023A0001447E397F6FA5C47E394D7FA55BFDC434A
:1023B000B2405CC3DC472324F406224441018280FE
:1023C000411122C4370400808327840626C2AE84CC
:1023D000938587014AC006C6EFE0AFE9B7070080E2
:1023E00003A947058327840603258406A38A0704D7
:1023F0001105EFE0EFEA05E1832684063707008048
:102400008547D05683260705B397C70093C7F7FFC4
:10241000F58F2328F704FD57638EF4048327840681
:10242000269923A2270163709902B707008003A5AC
:102430000706832584062244B2409244024991054E
:1024400041016FE00FE3B707008003A5470683252E
:1024500084069105EFE0EFE1B707008003A787034B
:102460006374E90023AC2703B2402244924402493A
:1024700041018280B727048093870714D443032740
:1024800084068328840688468325840603268406DA
:1024900014C703288406984323A6A80091054CC1BD
:1024A000B2402244110690C60507232AF80098C3BB
:1024B00092440249410182804111584122C43704AB
:1024C000008003238406832887008327840603284B
:1024D000840606C683268406232EE30023A0170362
:1024E0000323840661081C41E10623A2080114C7E6
:1024F0002324A30285071CC13DE2B70700804AC020
:1025000003A94705832784060325840626C2A38AD8
:1025100007041105AE84EFE0AFD869CDFD57638D98
:10252000F40E83278406269923A227016366990A5D
:10253000B707008003A54706832584069105EFE0D1
:102540004FD3B707008003A78703637EE90E23AC50
:10255000270392440249B240224441018280B707D6
:10256000008083A747058327840603258406A38A62
:1025700007041105EFE0CFD205E183268406370773
:1025800000808547D05683260705B397C70093C7B9
:10259000F7FFF58F2328F704B727048093870714E4
:1025A000D44303278406832884068846832584062B
:1025B0000326840614C703288406984323A6A8008C
:1025C00091054CC1B2402244110690C60507232A4A
:1025D000F80098C341018280B707008003A5070671
:1025E00083258406224492440249B2409105410168
:1025F0006FE02FC883268406370700808547D056B2
:1026000083260705B397C70093C7F7FFF58F2328E5
:10261000F704FD57E397F4F0832784061307F9FFC7
:10262000D8C3E31B09FAB707008003A54706832533
:1026300084069105EFE0EFC3B707008083A7870307
:102640009244024909BFB2402244924402494101E6
:1026500082805C45DC479857D04F9453484393851C
:10266000870114C6D0C2630CB50A144323A4070221
:1026700037060080FD1614C303270603D05735EF35
:10268000CC4B9447D847C8411388470098C654C3D9
:1026900063090509884193162600B29637270480FE
:1026A0008A061307471A36979306F5FFB708008086
:1026B000484394C103A3080585460C45B396C6005C
:1026C000B3E6660023A8D8041443CCC788C723A266
:1026D000050123240501D8CB938716001CC3B70737
:1026E000008083A787060145DC5763F7C700B7075B
:1026F0000080054523A2A7048280372704801307A2
:1027000087164843144303288500C8CF850623A0B5
:1027100007032322B8000CC514C398D7C9B754C304
:10272000A9B7D8C185BF37070080B7070080032746
:10273000070483A7470518C15CC182807370043009
:10274000370700808327C704BDE7B7070080B706B7
:10275000008003A8460503A68706034656050DCA52
:1027600083A68706A38A060405450327C70405C375
:1027700003A78706784301CF03A7870683A68706AA
:102780007C43FD177CC3FC4299E373600430828074
:102790009041FD58630A160537030080032E030499
:1027A000832E0500832845006381CE03636F1801E3
:1027B00023A0050055BFB707008003A6870683A6A0
:1027C00087067442850674C259B7330E1841E37107
:1027D000CEFE330606410328030483A6460546962B
:1027E00090C12320050154C1014541B7B7070080BE
:1027F000054723A2E704828035C9011126CAB70420
:10280000008083A78406585522CCDC5706CE2A8444
:102810006373F7041C4D4AC863C8070083A6840687
:102820009D47D456958F1CCD93172700BA9737290B
:10283000048058488A071309491ACA97630AF7029D
:1028400083A78406DC575CD4F24062444249D244F8
:1028500005450561828083A784062845F240DC5740
:102860006244D2443335F50005618280014582809F
:102870004EC6930944004E85EFE08FA231C537065E
:10288000008003A7840683250605854754571397C0
:10289000260036970A073A9903274900B397D700CD
:1028A000CD8F0C472328F6048327090054D418C47D
:1028B0004CC423A2350123243701232A2401850790
:1028C000B2492320F90049B7545437060080032742
:1028D00006058547B397D70093C7F7FFF98F2328DD
:1028E000F60445B715C17C4541115455384522C4FD
:1028F00006C6FD177CC52A846383E60081CBB240FF
:1029000022440145410182800145828026C2930410
:1029100045002685EFE0CF9821CDB70500803844EB
:10292000B72704809387471A93162700BA968A061A
:10293000B697D44303A30505054583A8860033183D
:10294000E5001D46198E3368680058D414C4232648
:10295000140110CC23A80505984323A2980084C62F
:102960005CC8B24022442A9798C3924441018280B5
:102970005454B705008003A705058547B397D700D2
:1029800093C7F7FFF98F23A8F50451BF05C93C454C
:10299000411122C406C62A8463EDB7005854630669
:1029A000F70070448546630CD600B24022444101D2
:1029B00082805854AE87E316F7FEC5BF8280144C60
:1029C00026C25CD463C606009D46B387F6401CCC85
:1029D00093172700BA97B724048058488A0793842E
:1029E000441AA6976307F700B2402244924441017B
:1029F00082804AC0130944004A85EFE06F8A54542C
:102A00000547370600803317D70001E983250605FF
:102A10009347F7FFED8F2328F60493972600B69788
:102A20008A07BE94D440832706058C46D98F232875
:102A3000F6049C4014C44CC423A2250123A42601FF
:102A400044C885079CC00249924485B7737004301E
:102A5000B707008083A7C70491CBB707008003A7FF
:102A6000870683A787067C4385077CC38280B707D8
:102A7000008083A7C70495C3B707008003A7870614
:102A8000784301CF03A7870683A687067C43FD17FB
:102A90007CC3FC4299E3736004308280B7070080F6
:102AA00003A7870611C783A68706F8460507F8C659
:102AB00003A5870682805D715AD837CB0090CAC0C3
:102AC0004EDE52DC56DA5ED686C6A2C4A6C262D4F8
:102AD00066D26AD06ECE130BCB59B7090080B70A05
:102AE0000080370A008037090080A54B83A7C907FB
:102AF000804363110422EFF0EFBBEFF0AFBC83A77C
:102B0000CA062A8D636DF50683278A0723A6AA06BF
:102B100090431336160003254907B305A441EFE09F
:102B20005FC8EFF0CFD719E1730000000325490714
:102B300001468A85EFE04FD155D98247224563C4CB
:102B4000071C224C83274C0189C713054C00EFD08A
:102B50003FF5EFF02FB783A7CA06AA8D6361F5088A
:102B6000824723A6BA07E3E3FBFC8A07DA979C4374
:102B70008287F99B2302F4021C502285829783A747
:102B8000C9079843630A0720DC47C04703AC070026
:102B9000930C44006685EFD0BFF08347440213F7DF
:102BA000470061DB1C4C00C8B304FC0044C063EC6C
:102BB00084011C502285268C82971C4C00C8BE9430
:102BC00044C0E3F884FF03258A07E685EFD07FEA57
:102BD00065B7F99B2302F4021C502285829783A7D4
:102BE000C90798436305071CDC47C04783AC07004F
:102BF000130D44006A85EFD0BFEA8347440213F700
:102C0000470061DB1C4C00C8B384970144C063ECEF
:102C100094011C502285A68C82971C4C00C8BE943F
:102C200044C0E3F894FF03258A07EA85EFD07FE4E8
:102C300065B7924603464C0203278C0123288C017A
:102C400093651600B387E6002302BC022322FC0032
:102C5000B3B5D70063E4FD16B386DD4063EFE60647
:102C60009376460085E6799A2302CC0283270C02EC
:102C70006285829765BDB387FD4063E6E7168327CB
:102C80000C026285829703278C01A2873304F70028
:102C900023288C0123228C00B336E400E3FD8DFC55
:102CA00063F3FD00E9DE03A5C90793054C00EFD0EF
:102CB0005FDC6DBF124783474C0223288C01B306AB
:102CC000B70193E717002302FC02232CEC00232218
:102CD000DC0063E9DD0EE30B07E403258A079305B7
:102CE0004C00EFD01FD999B583474C02F99B2302C2
:102CF000FC022DBD83474C0213F7270079CBF99BCB
:102D00002302FC0225B59247B24582978247E3CF62
:102D100007E005BDDC478043EFF0CF99EFF08F9AD5
:102D200083A7CA062A8DE36CF5E423A6AA0601460A
:102D3000E36385DEEFF0AFB683A7C907DC47C4477E
:102D4000938C44006685EFD0BFD583C7440213F748
:102D5000470005E3F99B2382F4029C502685829765
:102D6000F1B333048D40636AF4069C502685628477
:102D700082979C4C84C8330CF40023A2840133371F
:102D80008C00E3708DFF63738D0065D303A5C907C5
:102D9000E685EFD01FCED1B703278A0723A6AA075F
:102DA000232CFA0623AEE906EFF06FAF41B30327F9
:102DB0008A07232CFA0623AEE9065DB363F4DD002F
:102DC000E38005EA03A5C90793054C00EFD07FCA4D
:102DD000B1BB6285EFD0DFBB91BB03258A07E685D7
:102DE000EFD03FC99DBF03258A0793054C00EFD064
:102DF0005FC8ADBD411122C406C637040080EFF0A4
:102E0000FFC483274407A1C3EFF07FC6832744078D
:102E100095C72244B240B7070080B7C50090373548
:102E20000090938707079385C55C130565AB194729
:102E300081461306E00641016FE07FB0B2402244B4
:102E40000145410182804AC0372904801305492485
:102E500026C2EFD07FC0B724048013850423EFD0AF
:102E6000BFBF37070080B707008013094924938448
:102E700004230146C1451945232E270723AC970695
:102E8000EFD01FCC232AA40611C9B7C500909385A3
:102E9000455CEFE04FFF92440249BDB792440249BE
:102EA000A5B75171A2D5A6D3CAD1CECFD2CDD6CB9C
:102EB000DAC9DEC7E2C5E6C3EAC16EDF86D7EFF046
:102EC0006F80B7C6009093868656B7C90090216779
:102ED000B70702009389095037C40090B7CC00901F
:102EE00036C27D17B7060088FD17138B4906938DF0
:102EF00089094408130C810413040453938C4C5324
:102F0000138906003AC43EC6814BB70A0080370DCC
:102F10000080054ACE8726879443CC43904714C34C
:102F2000D4474CC310C754C7C1074107E39687FE77
:102F30001440E68714C362879443CC43904714C37C
:102F4000D4474CC310C754C7C1074107E39667FF76
:102F500083260B00924714C3F8189443CC43904740
:102F600014C3D4474CC310C754C7C1074107E396E5
:102F7000B7FF83A70D001CC3B70700A063854B05EF
:102F80009C4B63C80700814B13052003EFF0CFACC7
:102F900051B703A58A099305803EEFE02FBB631B61
:102FA0004501370700A05C472246B7860080F18FB5
:102FB000D58F5CC703A58A09814601468145EFD0BC
:102FC000BFC1854BD1B783AB070193F71B00F5DB7E
:102FD00093F70B10BDC783270D08B5CBB7C700907B
:102FE0001385475DEF50701D23200D08B727202063
:102FF00093870702130700022320F9002322F90018
:103000002324F9002326F9002328F900230AE900E4
:1030100003A58A099305803EEFE04FB3631B45018A
:10302000370700A05C472246B7060080F18FD58F96
:103030005CC703A58A09814601468145EFD0DFB907
:1030400099B793F70B2099CB23204D09D1B7B7C778
:10305000009013850762EF50501649BFB24613D750
:10306000EB009377170093D5AB003375D700BD897C
:10307000098B8DCF939725008A97F45F1306000282
:1030800083C706006384C700A309F90083C716003D
:10309000130600026384C700230AF90083C72600D1
:1030A000930600026384D700A30AF9000DCF93971B
:1030B0002500E29794431307000283C70600638448
:1030C000E7002308F90083C7160013070002638492
:1030D000E700A308F90083C72600130700026384F2
:1030E000E7002309F9000947454893972500B3866F
:1030F000F400B317EA00E98F1306000291CB9C425B
:10310000B306E94083C707006384C7002388F6003D
:103110000507E31C07FDB7C700901385C75DEF5097
:10312000D009B707008893850700B7C700901385BB
:10313000075EEF50900893F70B0495E793F70B08A1
:1031400081EF93FB0B02E3850BECB7C7009013856F
:10315000475FEF5090066DBDB7C700901385C75EFF
:10316000EF50B005F9BFB7C700901385475EEF5029
:10317000D004E9B74111054506C622C426C2EFD0E6
:103180005FE0AA87370400800545232EF408EFD0BE
:103190005FDFAA87B70400800D468145054523AC53
:1031A000F408EFD0FF998327C40937070080232A4A
:1031B000A708A9C383A7840995CF0DCDB7C50090F3
:1031C000374500909385C55F81470D47814611665D
:1031D00013054581EFE0AFF6B7C500903735009095
:1031E00093850560130525EA8147114781461166DD
:1031F000EFE0EFF4EFE01FA4B24022449244014517
:1032000041018280011106CE02C6EF40A00211E505
:10321000B24789EFF24005618280B707008003A5BD
:1032200047096C00EFD05FDDB247EDD7EFF02F8E8E
:10323000F240056182801C41011122CC26CA06CED3
:1032400009472A84AE846383E7086360F7044AC8A9
:10325000CDCB3709008003258909B70700803707E0
:1032600000809305803E83A407094EC68329C708C2
:10327000EFE0CF8D85476306F51403258909814664
:1032800001468145EFD05F950DA80D476394E71285
:103290004AC8370900800325C9099305803E4EC6F8
:1032A000EFE0CF8A8547AA896301F5180325C9098C
:1032B000814601468145EFD03F924249B24981475C
:1032C000F2401CC06244D244056182804AC837097A
:1032D00000800325C9099305803EEFE02F878547CD
:1032E0006306F5180325C909814601468145EFD0DB
:1032F000BF8E8D474249F2401CC06244D2440561F2
:10330000828037090080032589099305803EEFE01C
:10331000EF838547630EF518032589098146014629
:103320008145EFD07F8B9387D4FD93F7F70F130779
:1033300070036368F70A37D700908A07130707916D
:10334000BA979C4382873707008093048009B707A8
:1033500000804EC652C42322970823A407080325E1
:103360008909B7070080370700809305803E03AACC
:1033700007098329C708EFD07FFD85476312F5024F
:10338000370700A0544721669397C900F18ED58F67
:10339000220AC58FB3E74701B7060080D58F5CC707
:1033A00003258909814601468145EFD0FF824249C4
:1033B000B249224A8547F2401CC06244D2440561AA
:1033C0008280370700A05447216693978400F18ECE
:1033D000D58FB209B3E73701B7060080D58F5CC738
:1033E00069BD9387A4FB3707008093B71700B70622
:1033F00000802322070823A4F6086D476397E44062
:10340000370900800325C9099305803EEFD01FF4DA
:1034100085476301F53C0325C9098146014681457D
:10342000EFD08FFB8947424961BD2685EF30706739
:103430002945EF301067938504FD93F7F50F63F589
:10344000F936930780036381F436B707008083A5BC
:10345000C70837C5009013054570EF50005637C5B3
:10346000009013054560EF50405589B52685EF3033
:1034700050632945EF30F062938504FD13F7F50F93
:103480009D4763EEE73237C50090B707008013050C
:10349000856623A8B708EF504052B707008083A580
:1034A000C70837C500901305456BEF5000511DBD8F
:1034B0002685CD2695B53707008093049008B70779
:1034C00000804EC652C42322970823A4070841BD9A
:1034D000370700809304E009B70700804EC652C446
:1034E0002322970823A407089DBD37070080930473
:1034F000D009B70700804EC652C42322970823A4E0
:103500000708B1BD3707008093042008B707008083
:103510004EC652C42322970823A4070889B537074B
:10352000008093045008B70700804EC652C423227F
:10353000970823A4070825B537070080930440089F
:10354000B70700804EC652C42322970823A4070859
:1035500039B53707008093043008B70700804EC69E
:1035600052C42322970823A40708D5BB370700803D
:1035700093041008B70700804EC652C42322970850
:1035800023A40708E9BB370700809304F009B707B5
:1035900000804EC652C42322970823A40708C1B353
:1035A0003707008093048008B70700804EC652C4D6
:1035B0002322970823A407085DB3370700809304EC
:1035C000000AB70700804EC652C42322970823A4DE
:1035D000070871B33707008093047008B7070080AD
:1035E0004EC652C42322970823A407088DBB370771
:1035F00000809304C008B70700804EC652C423223F
:10360000970823A40708A1BB37070080930410097B
:10361000B70700804EC652C42322970823A4070888
:103620003DBB3707008093045009B70700804EC6A2
:1036300052C42322970823A4070815B33707008034
:1036400093049009B70700804EC652C423229708FE
:1036500023A4070829B33707008093042009B7077C
:1036600000804EC652C42322970823A40708C5B978
:103670003707008093046009B70700804EC652C424
:103680002322970823A40708D9B937070080930499
:10369000A009B70700804EC652C42322970823A46E
:1036A000070875B93707008093043009B707008011
:1036B0004EC652C42322970823A407084DB13707EA
:1036C000008093047009B70700804EC652C42322BD
:1036D000970823A4070861B1370700809304B00955
:1036E000B70700804EC652C42322970823A40708B8
:1036F000BDB1370700809304C009B70700804EC6EC
:1037000052C42322970823A4070891B937070080E1
:103710009304A008B70700804EC652C4232297081E
:1037200023A407082DB93707008093044009B70781
:1037300000804EC652C42322970823A4070805B16F
:10374000370700809304D008B70700804EC652C4E4
:103750002322970823A4070819B137070080930490
:10376000E008B70700804EC652C42322970823A45E
:103770000708F5B6370700809304B008B707008044
:103780004EC652C42322970823A40708C9BE370790
:10379000008093046008B70700804EC652C42322FD
:1037A000970823A4070865BE37C50090B7070080B7
:1037B0001305456E23A6B708EF5020204DB1B7077B
:1037C000008083A5070937C500901305C568EF5031
:1037D000C01EE1B1B7C4009013854460EF50E01DF6
:1037E00037C5009013054562EF50201D13854460D6
:1037F000EF50A01CB707008083A5070937C50090CC
:1038000013054564EF50601B39B14EC652C4939402
:10381000E700B1B6797122D426D24AD04ECE52CC2E
:1038200006D602C6EFE00FEA81470144B7090080DF
:10383000370900808544654A0DA00325C9098146E2
:1038400001468145EFD04FB9A2856800EFF0BF9ED9
:1038500013052003EFE05FA0B247FD55E38697FE16
:1038600003A54909EFD09FAE0325C9099305803E02
:10387000EFD0DFADE31395FCEF30501A9307F5F965
:1038800093F7F70F2A84130705FEE368FAFA137417
:10389000F70F65B793178501E1879306F00F63C9AA
:1038A0000700B7D700909387079FAA9783C60700A2
:1038B000B70700889387870103A8870003A3470001
:1038C00083A807001317880113160301518F13965D
:1038D0008800518F94C3558F370600A018C2884BBB
:1038E000B2865042CC474177798E13178500518FAD
:1038F0004D8F23A4670023A2170123A60701C8CB7D
:10390000D8C28CCB8280370700A023200700232257
:103910000700232407002326070023280700232A63
:103920000700FD55370600200CD32E9650D32324D4
:1039300007024CD723280702930600F054DBBA870E
:103940005843B70601FCAE96758FD8C31305000225
:1039500091B7B70700A088471345F5FF298105896E
:103960008280B70700A088471375F53F8280011158
:1039700026CAB704008022CC2A8403A5040D93052F
:10398000803E06CE4AC84EC652C4EFD03F9C854703
:103990006305F50A03A5040D814601468145EFD074
:1039A000AFA3930700026306F408B7D700900A0498
:1039B000938707B5A29703A90700014A014603A50B
:1039C000040DB707008037080080B706008037076E
:1039D00000809305803E03A4470C8329070C232C09
:1039E000280B23AEC60AEFD07F9685476315F502F4
:1039F000370700A05447216693178400F18ED58FB6
:103A0000B209B3E74701B3E73701B3E72701B706C8
:103A10000080D58F5CC7624403A5040DF240D244F8
:103A20004249B249224A81460146814505616FD02B
:103A3000AF9A116A0149054659B7B7D700909387E5
:103A400007B3A29703C50700B135A9B737D80090CF
:103A500037D60090B7D6009037D70090797193177A
:103A60001500130808E5130606E1938606DD130723
:103A700007D922D426D24AD04ECE3E983E96BE9644
:103A80003E9706D652CC56CA5AC85EC662C466C2B3
:103A9000035408008354060003D906008359070025
:103AA000D9CD37D70090130707D13E97035A0700A7
:103AB000B70E008837DE009037D30090B7D800905B
:103AC00037D800900A05938E4E07130E0EBD1303D0
:103AD00003C9938808C5130808CDAA9E2A9E3E9361
:103AE000BE983E9883AA0E00832C0E00035B030051
:103AF00083DB0800035C08005287CE864A86A685D1
:103B00002285EF302001E6875287E2865E86DA85DD
:103B10005685EF30C06522852254B250624AD24A9F
:103B2000424BB24B224C924CCE864A86F249025905
:103B3000A68592548547014745616F30401F37D7AE
:103B40000090130707D53E97035A070095B7011158
:103B50004EC6B709008883A7491006CE4AC852C48A
:103B6000638BA70C22CC26CA370A00883709008845
:103B7000216723A2A9102320BA10232EC90E1307F0
:103B8000078001C541671307078013B4150033048C
:103B90008040137404C0A1641304047E9384F4BEB3
:103BA00041EAD1467146AD4513052012EF209076CB
:103BB0002287D14671469305200213052012EF207B
:103BC00070752687D1467146930590031305201220
:103BD000EF20507485470147D1467146AD45130526
:103BE0002012EF30C01485470147D1467146930536
:103BF000200213052012EF30801385470147D1467C
:103C000071469305900313052012EF30401283A7ED
:103C10004910C9E383270A10B9EF8327C90F9DE72D
:103C20006244D244F2404249B249224A056182804C
:103C3000C164FD14BDB7370A008883270A1037090D
:103C400000886388B70622CC26CA1DB76244D244D6
:103C5000F2404249B249224A416737C500907D1778
:103C60001305857B81478146130600049305501296
:103C700005616F30C04F37C500901305457B814704
:103C80001307007E81461306900293055012EF3011
:103C9000004E61B7416737C50090130707801305D1
:103CA000057B81478146494693055012EF30204CF1
:103CB00095B78327C90FE398C7F8ADB7011137D679
:103CC0000090B7D6009037D70090B7D7009022CC9D
:103CD000130686B12E84938606B09315150013073C
:103CE00087AE938707AD26CAAE972E96AE962E97CF
:103CF000933414004EC652C456C25AC083590600AB
:103D000003DA0600835A070003DB0700B304904080
:103D1000C204C1804AC8D285DA86568626872A8997
:103D20004E8506CEEF20105FDA865686D2854E8508
:103D300085470147EF20B07FB70700889387470486
:103D40000A093E99B3368000624403250900F24017
:103D50004249924A024B13063A0093857900224A5F
:103D6000B249B306D0402687D244C2064206C205F5
:103D7000C1824182C181854705616F30403FA947BB
:103D800063EFA700B7D70090938707A70A053E9572
:103D90001C418287B7070080214723A0E70C82805F
:103DA000B7070080054723A0E70C8280B707008093
:103DB00023A2070C8280B7070080054723A2E70CE7
:103DC0008280B7070080094723A2E70C8280B707EB
:103DD00000800D4723A2E70C8280B70700801147BF
:103DE00023A2E70C8280B7070080154723A2E70CC7
:103DF0008280B7070080194723A2E70C8280B707AB
:103E00000080214723A2E70C8280B707008023A00F
:103E1000070C8280011122CC3724048026CA4AC8AC
:103E200006CE4EC652C41307C4260325C426B724A3
:103E300004803729048093860428930789255043FA
:103E400003A3460083AF04288325892583A8470060
:103E500003A8870023A0A4283725048003AF860089
:103E6000832E8700D0C21306452923226600232211
:103E7000170103A3C70083D80601370E0080232A49
:103E8000F5292326B42683AFC6004C472324070117
:103E90000328CE0A2324E60123A4D601035F0701E9
:103EA00083DE07012326F601CCC623266700B7056B
:103EB00000803703008023181601B708008003A68E
:103EC000480A23A8050B8325830A2398E6012318B3
:103ED000D701896637272020130707029386060239
:103EE0002398D7002326BE0A2324C30A23A2080A44
:103EF00098C3D8C398C7D8C7814663050800C16670
:103F000093860680014A81C5416A130A0A80814965
:103F100001C6C16993890980854731673E861305CB
:103F20004529130787618145EF30801A3167D286B2
:103F30001385042813078761854709468145EF30BB
:103F400020193167CE861305C4261307876185477C
:103F50000D468145EF30C0176244F240D244B24969
:103F6000224A13058925424931671307876185472E
:103F700081461146814505616F308015C16637C5A0
:103F8000009059718147FD161305C57B7D47014699
:103F9000814586D6A2D4A6D2CAD0CECEE2C4E6C28D
:103FA000EAC06EDED2CCD6CADAC8DEC6EF30401226
:103FB0003167130787619306800413060014A14537
:103FC0000145EF203035EFF0FFE401468145014522
:103FD000EFF0FFB7B7D6009037D70090B7D7009073
:103FE00037DE009037D30090B7D8009037D80090D4
:103FF000B7D9009037090088B7D40090938606C9D6
:10400000130707C5938707CD130D0EE5930C03E146
:10401000138C08DD930D08D9938909D51309490735
:10402000938404BD36D23AD43ED60144925783D20B
:104030000D00835A0D00338A8700A25703DB0C0062
:10404000835B0C00B3838700B25703580A0003D781
:104050000900A29783D7070083D8030096863ECA3B
:104060009C405685DA855E86032A090016D042C632
:1040700046C83ACE3ECCEF20F029E2477247D246FE
:104080004246B24552850904EF30600E82528547A0
:104090005E869686DA8556850147EF20504993075C
:1040A0000004090D890C090C890D89091109910475
:1040B000E31EF4F6B650265496540659F649664A5D
:1040C000D64A464BB64B264C964C064DF25D656182
:1040D00082804111B7250480B72720200968372640
:1040E0000480B72604803727048006C622C426C26F
:1040F000938707021307872593854529130606280A
:104100009386C62613080802370F0080B70E00807A
:10411000370E0080370300801CC35CC31CC75CC71C
:104120002324AF0C9CC1DCC19CC5DCC51CC25CC295
:104130001CC65CC69CC2DCC29CC6DCC62318070138
:1041400023090700B708008023890500239805018B
:104150002318060123090600239806012389060077
:1041600023A80E0A23260E0A2324030A23A2080AE0
:10417000EFF0DFE00545EFC0DFE0AA8737040080FD
:104180000545232AF40CEFC0DFDFAA87B7040080BF
:10419000054523A8F40CEFC0DFDE8327440D370765
:1041A00000802326A70CA9C383A7040D95CF0DCDAE
:1041B000B7C50090375500909385C55F81470D477F
:1041C00081461166130585ABEFD06FF7B7C5009038
:1041D0003755009093850560130565668147114743
:1041E00081462166EFD0AFF5EFD0DFA4B240224484
:1041F00092440145410182805971D145A2D4416464
:104200001307F4FF2E859306800C1306801186D6C3
:10421000A6D2CAD0CECED2CCD6CADAC8DEC6E2C4C6
:10422000E6C2EAC06EDEEF20F00ED1452E8589474A
:1042300001479306800C13068011EF20502F1306C0
:10424000800237C500901307F4FFB2851305857E01
:104250008547FD46EF20B07137C500901307F4FF86
:104260001305857F8547FD461306E006930580020A
:1042700037D40090014AB144EF20706F1304C4A9F1
:10428000B70900803709008063EE442B93172A009A
:10429000A2979C438287B70A0088416A02D42316FA
:1042A0000102938A4A047D1A0149B704008005443B
:1042B000894983A7840C6383873663893709631D23
:1042C00089085287D146130680029305400B1305D7
:1042D000000FEF20300485470147D14613068002C6
:1042E0009305400B1305000FEF20702403A5CA02AD
:1042F0005287854781461306700B9305700FEF2098
:1043000010678357810213078002938707F1C20762
:10431000C1836363F7048357A10251479387C7F4AE
:10432000C207C183636AF702EFF05FC5B650265437
:1043300096540659F649664AD64A464BB64B264C21
:10434000964C064DF25D656182800149EF10502860
:1043500015E18547E307F9F683A7840C6388870096
:10436000E38537FF83A7840CE39C87FEEF10303191
:1043700001497DD1130B700283A7840C63868716D5
:1043800063893725630B8918835781026372FB4C5D
:104390000357A1029306500463FCE64A93066004A7
:1043A00063E1F6249307A00563E6E724814BB70891
:1043B000008003A9480B6308791137D80090B7DD56
:1043C0000090130888B193171900938D0DB037DC56
:1043D000009037DE00903306F800130E0EADB38662
:1043E000FD00130C8CAE835C060003DD0600330772
:1043F000FC00F2970356070083D6070041631307BA
:10440000F3FF6685EA8542C872C632C436C2EF2021
:10441000607092462246EA856685854701470A090B
:10442000EF20F01056990325090013063D009385EF
:104430007C0041634206C2051307F3FF4182C1813C
:1044400085478146EF20B052324E424893971B0079
:10445000BE9D3E983E9CF2970359080083DC0D00F8
:1044600003DD0700035C0C00E685EA8662864A8568
:104470000147EF20206AEA866286E6854A858547FD
:104480000147EF20D00A93972B00D69788431386D5
:104490003C009305790041634206C2058547014708
:1044A0004182C1819306F3FFEF20704CB708008072
:1044B0005E8523AA780BEFF09F8C83578102130748
:1044C00070026363F75C83A7840C05476389E74E3A
:1044D0000947E398E7DEEF10B00FE30405DE054976
:1044E00083A7840CE39E87E8EF105015E31C05E8D2
:1044F00083A7840C0547E395E7E8930B81025E856B
:10450000EF20C03D83A7840C09476386E70CE39B3B
:1045100087E6EF107023E31989E603A9840C630F83
:104520008908E31039DBEF10B00A55F959BB83A5B0
:10453000090CE11593B515005285050AEFF00FF847
:10454000E3F644D58145CDBF83A5090CFD1593B590
:104550001500DDB783A5090C93B51500F1BF8325C0
:10456000490CE11593B51500C1BF8325490CE91528
:1045700093B51500D1B78325490CED1593B51500FA
:1045800065BF8325490CF11593B5150075B78325D3
:10459000490CF51593B5150045B78325490CF91558
:1045A00093B5150051BF8325490CFD1593B5150032
:1045B00061B78325490C93B51500BDBFEF10300CD2
:1045C000E30105D083A7840C638987480947E396F4
:1045D000E7F4930B81025E85EF10300183A7840C12
:1045E0003DB79306400663E0F6049307A005854BAC
:1045F000E3FFE7DA9307B00863FDE7009307000ADB
:1046000063E9E700B70C008883AB8C0FA147639E7A
:10461000FB3A83A7840C0149E39187CAEF10300667
:10462000E31A05D43DB39306200863E0F61A930617
:10463000A005894BE3FDE6D69306B008E3FBE6FC54
:1046400093068007014963EEF63E9306000AE3E213
:10465000E6C6B70C008883AB8C0F21476397EB3617
:1046600013078007E397E7C437D80090B7DD0090C1
:1046700037DC009037DE0090130888B1938D0DB0C1
:10468000130C8CAE130E0EAD9308F008130DF00250
:10469000D146130600059305C0081305800225497D
:1046A00041631307F3FF42CE72CC46CA36C832C606
:1046B0002EC42AC2EF200046C2463246A245124509
:1046C00085470147EF20A06693972B00D248D697E5
:1046D0008843416346861307F3FFEA858547814691
:1046E000EF20F0287248624E931719003E983E9EC4
:1046F000BE9D3E9C835B080003DD0D00035C0C0047
:10470000835D0E00EA856286EE865E850147EF20B6
:104710006040EE866286EA855E8585470147EF2028
:10472000006193172900D697884313063D009385AF
:104730007B0041634206C20585474182C1819306E1
:10474000F3FF0147EF20B022A54723AC2C0F6307EE
:10475000F924A94783568102630CF930B70700801A
:1047600023A0070C1307F00E8357A102E37DD7D4D3
:104770009387C7F4C207C18351476365F72A93073C
:10478000801163E1D72A0147D146130680029305C1
:10479000400B1305000FEF20E03785470147D14656
:1047A000130680029305400B1305000FEF202058DD
:1047B00003A5CA02C166FD16854701471306700BA3
:1047C0009305700FEF20B01A89BB9306000A63EFC0
:1047D000F6089307A0058D4BE3FBE7BC9307B008F1
:1047E000E3F9E7E2E3E7E6E2B70C008883AB8C0F7E
:1047F000A547E380FBE237D80090B7DD00909397A0
:104800001B00130888B1938D0DB0B306F8003387F1
:10481000FD0003D506008355070037DC009037DE26
:104820000090130C8CAE130E0EAD130D7500938813
:1048300035003307FC00420DF297C208035607000B
:1048400083D60700135D0D0193D80801254989BD62
:1048500083A7840C05476387E7200947E39EE7AEFB
:10486000EF100057E30A05AE014939B61306E00B15
:104870006368F6009307A005914BE3FAE7B2B9BF6E
:104880009306C00D63ECF6069306A005954BE3F086
:10489000E6B29306B008E3FEE6D69306800C014923
:1048A00063ECF6069306000AE3E5E6A0B70C008881
:1048B00083AB8C0F2547E390EBF41307800CE39A4E
:1048C000E79E37D80090B7DD009037DC009037DEE8
:1048D0000090130888B1938D0DB0130C8CAE130E9D
:1048E0000EAD9308F008130DF007D146130600052E
:1048F0009305C0081305800729495DB39306A00FEF
:1049000063E4F6089306A005994BE3F2E6AA930642
:10491000B008E3F0E6D001499306000A63E6E6102A
:10492000B70C008883AB8C0FA947E384FB9837D87A
:104930000090B7DD009013971B00130888B1938D8A
:104940000DB03306E800B386ED000355060083D5AD
:10495000060037DC009037DE0090130C8CAE130E8F
:104960000EAD130D750093883500B306EC00420DB3
:104970007297C20803D606003E8983560700135D6E
:104980000D0193D8080129BB93068011E3E3F6C813
:104990009306A0059D4BE3FCE6A0E5BD835681028E
:1049A000B7070080054723A0E70C1306F00E8357D6
:1049B000A102E36FD6DA83A7840CE39BE7B0EF1084
:1049C000004CE3000590054921BE37D80090B7DDC3
:1049D000009093971B00130888B1938D0DB0B30618
:1049E000F8003387FD0003D506008355070037DC48
:1049F000009037DE0090130C8CAE130E0EAD130D2D
:104A00007500938835003307FC00420DF297C20809
:104A10000356070083D60700135D0D0193D80801E4
:104A20002149BDB9054971B09306F00EE3F3F6884C
:104A30009307C7F4C207C1835147E376F7D46FF0F9
:104A40005F879307000AE3E6E786B70C008883AB2D
:104A50008C0FA547E38FFB8479BBEF10203EE30961
:104A600005A865BCEF10A041E308058E014929B2F5
:104A7000B7070080214723A0E70C1307F00E8357E8
:104A8000A102E367D7CE81B40357A1029306B00811
:104A9000E3FAE6F89306800763E4F600054975B685
:104AA0009306800C63E4F6000549EDBB9306801184
:104AB000E3EAF6F605498DB5357137DE009022CD73
:104AC00037D3009013040EE5B7D8009022C4130426
:104AD00003E137D8009037D50090B705008837D666
:104AE0000090B7D6009037D70090B7D7009022C675
:104AF000138408DD22C8130505D5130408D993854E
:104B00004507130606C9938606C5130707CD938785
:104B100007BD26CB4AC94EC756C35AC1DEDEE2DC0A
:104B2000EED622CA06CF52C5E6DAEAD82AD62ED267
:104B300032CE36D03AD43ECC014CB7040080B70B0D
:104B4000008037090080370B0080B70A00800544D9
:104B50008949930D000AA5A803A5C40C8146014606
:104B60008145EFC06F8713052003EFD0EFEE631090
:104B70003C075285EFE0BFDF13052003EFD0CFEDF8
:104B80000325090D9305803E832C0B0C03AC4A0CC6
:104B9000EFC0CFFB63118502370700A054472166A1
:104BA00093178C00F18ED58FB20CB3E79701B7063F
:104BB0000080D58F5CC70325090D814601468145DC
:104BC000EFC08F8113052003EFD00FE9014C03A53F
:104BD000C40C9305803EEFC06FF7E31F85F683A7F3
:104BE0008B0C638F870263813711E3178CF6930672
:104BF00000020357A10583578105630DDD1A930653
:104C000010026316DD0E9306000A63EDF60C93079F
:104C10006004014CE3E2E7F4EFF00FDE6A8A2DBF97
:104C2000EF10E0254DCD83A78B0C82CC231E010411
:104C30006388870263853705630E8C0403578105FB
:104C40008356A105930707F6C207C18363E6FD04F7
:104C50009307600463ECD704130D0002054CEDBD0F
:104C6000EF10C01D71F983A78B0CE39587FCA80892
:104C7000EF10D04603A78B0C89476315F700A808EF
:104C8000EF10A01683A78B0CE39887FAEF10C02BC8
:104C9000E3168CFA054CC9B563EDED129307600479
:104CA00063E6D700130D1002054C7DB59307F004A1
:104CB00063FAD70293078002B3C6F6027D46014C21
:104CC000B357F7021387E6FF8A07330DF700E34572
:104CD000A6E985456A85EFE07FD7054CB5BD8547D8
:104CE000E307FCF0014C8DBDEF10800E25BF130FC4
:104CF0008002B3D7E703930807FB224713181D0070
:104D00007243330507013247025EB3030301B30563
:104D10000701424703D30300B3030E013306070123
:104D20005247225E835E0600B30607013257931294
:104D30002D0076864297729803580800F6C6E24E18
:104D400042DE83DF0600035C050083DC050003DE32
:104D5000030003570700FE866285B3C8E803139873
:104D600027009257E685FEC496979C43F6921ADA7E
:104D70003ED883A7020072DCBAC2BEC0338A0801E3
:104D8000EF10505986471647F2566256D255425593
:104D9000EF20E03DA64FB64E6285330CAA41FE8659
:104DA0007686E68585470147133C1C00EF10307876
:104DB000060C5DB3938707F6C207C1839306000A0A
:104DC000E3E2F6F293076004E3EEE7F06A8A094C47
:104DD00061B39307F004E3F7D7F013068002B357EB
:104DE000C702014C33C7C6028A077917338DE70023
:104DF000A5B3B7D6009037D70090B7D700903971D8
:104E000093864680130747819387478203AF060046
:104E100083AE460003AE860003C3C60083280700A6
:104E2000032847008345C7009043D44322DC2A84EB
:104E30000847984783C7C70026DA044006DE7AC0D1
:104E400076C272C42306610046C842CA2ACC230E29
:104E5000B10032D036D23AD42306F1028DC885474C
:104E60006390F402B70700A04AD803A9070193771B
:104E70001900B5E74259F2506254D2542161828040
:104E8000F250232004006254D25421618280B7077B
:104E900000A0C1079C43E3D007FEB704008003A530
:104EA000040D9305803EEFC06FCA8547631BF50074
:104EB000370700A05C47B7860080C607C583D58F3B
:104EC0005CC703A5040D814601468145EFB0DFD0E4
:104ED0008547F2501CC06254D2542161828013561F
:104EE00059009355790013556900058A858905890C
:104EF000EFE0FFC5937709106391072293770920AC
:104F00006390071A9355E90093F715001359A90008
:104F10001379F90093F6250063940732638706221C
:104F20009307090333872700834607FE9307000290
:104F30006386F672B7070088938707032388D70034
:104F400093F64500638A0664834607FD1306000254
:104F50006384C6642387D70013F68500630706645D
:104F6000A386D70093F60501638A0664834607FD8E
:104F70002386D70093F60502638B0664834607FDFC
:104F8000A385D70093F60504638C0664834607FD6A
:104F90002385D70093F60508638D0664834607FDD5
:104FA000A384D70093F60510638E0664834607FD3D
:104FB0002384D70093F60520638F0664834607FD9C
:104FC000A383D70093F6054063800666834607FDFA
:104FD0002383D7009396450163D20666834607FD77
:104FE000A382D7009396350163CE061093962501D0
:104FF00063D10634834607FD130600026385C63479
:10500000A381D7009396150163DF0632834607FD1F
:105010002381D7009396050163DB060C834607FDC9
:10502000A380D7009396F50063D60600034707FDDB
:105030002380E700B70600803725048009663727FC
:105040002020130707021306060283A5060A93060B
:1050500085252398C60098C2D8C298C6D8C613869C
:1050600027011307852583C60700850791C62300FE
:10507000D7000507E399C7FEB707008023A2B70A48
:10508000814681C5C16693860680316713058525F3
:1050900013078761854711468145EF20600329A0EA
:1050A000B707008023A0970AB704008003A5040D6A
:1050B0009305803EEFC08FA98547631BF500370736
:1050C00000A05C47B7060080C607C583D58F5CC7C4
:1050D00003A5040D814601468145EFB0FFAFF250B4
:1050E0002320040062544259D25421618280939655
:1050F000F500E3D106F4034707FD93060002E31928
:10510000D7F20DBF834607FD2382D7009396250172
:1051100063D10622834607FDE5B5EFE0BFCFB707B1
:105120000088896637272020938707031307070223
:1051300093860602370600802398D70098C3D8C309
:1051400098C7D8C72320060A85B793F74500639709
:10515000072093F78500639C0738B707008893877B
:10516000070313F705016302073A130709030A97B8
:10517000834607FD130600026389C6382386D700DD
:1051800093F6050263860638834607FDA385D7009C
:1051900093F60504638A0638834607FD2385D70006
:1051A00093F6050863850638834607FDA384D70078
:1051B00093F6051063890638834607FD2384D700DC
:1051C00093F6052063840638834607FDA383D70042
:1051D00093F60540638B062E834607FD2383D70095
:1051E0009396450163D7062E834607FDA382D70019
:1051F0009396350163D0062A834607FD2382D700A4
:105200009396250163DC0628834607FDA381D7001A
:105210009396150163D90624834607FD2381D700A1
:1052200093960501E3CC06DE1397F500E35407E0FF
:105230000A990347090093060002E31BD7DEDDBB92
:105240009307090333872700034607FF93070002EC
:10525000630FF632B707008893870703A388C70058
:1052600089CA834607FE130600026384C6002388AA
:10527000D70093F6450063820612834607FD1306A6
:105280000002638CC6102387D70013F68500630FD6
:105290000610A386D70093F60501638206128346A3
:1052A00007FD2386D70093F6050263830612834623
:1052B00007FDA385D70093F6050463840612834691
:1052C00007FD2385D70093F60508638506128346FC
:1052D00007FDA384D70093F6051063860612834664
:1052E00007FD2384D70093F60520638706128346C3
:1052F00007FDA383D70093F6054063880612834613
:1053000007FD2383D7009396450163DA061283468F
:1053100007FDA382D70093963501E3C506DE939679
:10532000250163D80600834607FD13060002E399B2
:10533000C6CC9396150163D80600834607FD130675
:105340000002E397C6CC93960501E3D206DA8346C2
:1053500007FD13060002E38FC6CCD9B193070903FA
:1053600033872700834607FD93070002E383F6DEB9
:10537000B7070088938707032387D70093F6850034
:10538000E38106DE834607FDA386D70093F6050179
:10539000638D0616834607FDD5B393F6850099C63F
:1053A000834607FD13060002E395C6EE93F605015A
:1053B00099C6834607FD13060002E394C6EE93F6F2
:1053C000050299C6834607FD13060002E393C6EE65
:1053D00093F6050499C6834607FD13060002E3927F
:1053E000C6EE93F6050899C6834607FD130600022C
:1053F000E391C6EE93F6051099C6834607FD1306A2
:105400000002E390C6EE93F6052099C6834607FD99
:1054100013060002E39FC6EC93F6054099C6834647
:1054200007FD13060002E39EC6EC9396450163D880
:105430000600834607FD13060002E39CC6EC939624
:105440003501E3DE06EC834607FD13060002E38820
:10545000C6EC5DB9130709030A97834607FD1306D7
:105460000002E395C6DA13970501E35F07DA130735
:1054700009030A97834607FD13060002E38CC6BAA8
:1054800045B6130709030A97834607FD1306000272
:10549000E39EC6D413972501E34E07FA139715012F
:1054A000E35307FC130709030A97834607FD130616
:1054B0000002E395C6D645BF130709030A97834642
:1054C00007FD13060002E393C6D013974501E34A94
:1054D00007FA13973501E35F07FA130709030A97E1
:1054E000834607FD13060002E39AC6D065B793070B
:1054F000090333872700834607FD93070002639A59
:10550000F614B70700889387070313F7050235E7FA
:1055100013F7050411CB130709030A97834607FD08
:1055200013060002E39CC6C613F705080DEF13F738
:10553000051011CB130709030A97834607FD1306CD
:105540000002E39DC6C613F705203DF713F705409B
:105550002DDF130709030A97834607FD1306000290
:10556000E39EC6C69DB7130709030A97834607FD46
:1055700013060002E389C6FC15B9130709030A974D
:10558000834607FD13060002E380C6FA01B1B707A0
:10559000008893870703E9B193F6850099C683468F
:1055A00007FD13060002E39DC69A93F6050199C60E
:1055B000834607FD13060002E39CC69A93F6050294
:1055C00099C6834607FD13060002E39BC69A93F62D
:1055D000050499C6834607FD13060002E39AC69A9E
:1055E00093F6050899C6834607FD13060002E39962
:1055F000C69A93F6051099C6834607FD1306000266
:10560000E398C69A93F6052099C6834607FD1306CC
:105610000002E397C69A93F6054099C6834607FDB4
:1056200013060002E396C69A9396450163D80600D6
:10563000834607FD13060002E394C69A939635014C
:10564000E3D6069A834607FD13060002E380C69A56
:1056500065BCB7070088938707033DB3B707008889
:1056600093870703F1B8011122CC26CA06CE02C6E1
:105670003704008085440325C40C9305803EEFB0B9
:10568000FFCCAA87680063949700EFF08FF603259C
:10569000C40C814601468145EFB00FD413052003A9
:1056A000EFC09FBBC9BFB70700D09306700215E1DA
:1056B0002380D70037070080238207001307870D58
:1056C000A107930600F83A952380D7002300B50080
:1056D00082802380D71037070080238207101307AA
:1056E000870D93878710930600F83A952380D7009B
:1056F0002300B5008280B70700803DE583C7870D92
:10570000B70600D013870601860793F7F70F2386A5
:10571000F600930700F92300F70001008347070014
:10572000898BEDFFB70700D00DED2386B700C14789
:105730002300F700010083470700898BEDFFB707BF
:1057400000D009ED2386C700930700052300F7006A
:10575000010083470700898BEDFF82802386C710F5
:10576000E5B72386B710E1B79387870DAA9783C75C
:105770000700B70600D013870611860793F7F70FC7
:105780002386F61079B73706008059E50347860D62
:10579000B70600D0B10606071377F70FB70700D09A
:1057A0001306860D2380E600C107130700F9238046
:1057B000E700010003C70700098B6DFF370700D022
:1057C00029E92306B70041472380E700010003C70A
:1057D0000700098B6DFF2A9603470600130600F9A0
:1057E000060705071377F70F2380E6002380C7001D
:1057F000010003C70700098B6DFF13078006238094
:10580000E700010003C70700098B6DFF03C5060011
:1058100082802306B71045BF1306860DB307A60086
:1058200003C70700B70600D09386C6100607137794
:10583000F70FB70700D02380E60093870711B5B7AD
:10584000B708008055ED83C7880D370800D03108B0
:10585000860793F7F70F370700D09388880D23004A
:10586000F8004107930700F92300F7000100834780
:105870000700898BEDFFB70700D041E12386B70011
:10588000C1472300F700010083470700898BEDFF24
:10589000AA9883C70800930500F98607850793F740
:1058A000F70F2300F8002300B7000100834707002B
:1058B000898BEDFF854763F4C7027D163696930505
:1058C00000022300B700010083470700898BEDFF2A
:1058D000834708008506A38FF6FEE394C6FE930770
:1058E00080062300F700010083470700898BEDFF46
:1058F000834708002380F60082802386B71049B7CB
:105900009388880DB387A80083C70700370800D0A5
:105910001308C810860793F7F70F370700D0230046
:10592000F800130707113DBF8547739087BF0147F4
:10593000731007BF739047BF739027BF82804111D8
:1059400006C6EFD05FFCEF1030109526F13FEF1048
:1059500060271DE5EFE0EF801375051005ED37D5E5
:1059600000901305458CEF304005312E21E9B240FF
:10597000B70700A037070080D8CB41016FD08FFF59
:1059800022C4EF00904845C1EFD0BFFD137505104C
:1059900025C5224437D5009013058587EF30E001F7
:1059A000DD248547631BF502370700A0B70600809A
:1059B000B24054CB54C741016FD0CFFB37D50090D4
:1059C00013054589EF20707F652049E537D50090A4
:1059D0001305C58BEF20707E59BF37D50090130596
:1059E0004589EF20907D612239ED37D50090130570
:1059F000C58BEF20907C4DBF0544712401ED2285BD
:105A00002244B240B70700A037070080D8CB41013D
:105A10006FE02FECB12865D537D500901305858E42
:105A2000EF20B079E9BFB52601C9EFD09FF3137518
:105A3000051025F10944D1B7EFD0BFF21375051059
:105A400029F9224429BF37D500901305058AEF2094
:105A5000D07661BF37D500901305858EEF20F075A5
:105A6000B5B77370043001A07370043001A0828058
:105A700079714AD04ECE56CAB70900A037D90090E6
:105A8000856A52CC5AC85EC662C466C26AC006D66F
:105A900022D426D2D109370B004013094947938AF3
:105AA0000A9823A06901CA9A014A254D954C370CE2
:105AB0000060B70B005089A893944600138707FD38
:105AC0009386F7FB6369ED06BA94139484005294AD
:105AD000B307840123A0F9000545B9245A9405456C
:105AE00023A089009124B3077A0123A0F90005457A
:105AF000252C83A709004167090993F7F70F6392E3
:105B000097043A9A63832A070347090083471900D9
:105B10008144930607FD1306F7FBE37FDDF81307C7
:105B200097FCE3EDCCF893144700138707FD9386A9
:105B3000F7FBE37BEDF8938797FCE3E8DCF8BE9492
:105B400069B70545B2502254B70700A03707008057
:105B5000D8CB92540259F249624AD24A424BB24BD4
